S01500005632585F53657175656E6365722E7372656325
S1130000FDC0000021C100001FC100001DC100008F
S11300101BC1000019C1000053C600009DC60000AA
S1130020E7C6000031C700007BC70000A8C7000076
S11300300BC100000AC1000007C1000005C1000097
S113004003C1000001C10000FFC00000FDC00000AA
S1130050FBC00000F9C00000F7C00000F5C00000BC
S1130060F3C00000F1C00000EFC00000EDC00000CC
S1130070EBC00000E9C00000E7C00000E5C00000DC
S1130080E3C00000E1C00000DFC00000DDC00000EC
S1130090DBC00000D9C00000D7C00000D5C00000FC
S11300A0D3C00000D1C00000CFC00000CDC000000C
S11300B0CBC00000C9C0000013C10000C5C00000CF
S11300C0C3C00000C1C00000BFC00000BDC000002C
S11300D0BBC00000B9C00000B7C00000B5C000003C
S11300E0B3C00000B1C00000AFC00000ADC000004C
S11300F0ABC00000A9C00000A7C00000A5C000005C
S1130100A3C00000A1C000009FC000009DC000006B
S11301109BC0000099C0000097C0000095C000007B
S113012093C0000091C000008FC000008DC000008B
S11301308BC0000089C0000087C0000085C000009B
S113014083C0000081C000007FC000007DC00000AB
S11301507BC0000079C0000077C0000075C00000BB
S113016073C0000071C000006FC000006DC00000CB
S11301706BC0000069C0000067C0000065C00000DB
S113018063C0000061C000005FC000005DC00000EB
S11301905BC0000059C0000057C0000055C00000FB
S11301A053C0000051C000004FC000004DC000000B
S11301B04BC0000049C0000047C0000045C000001B
S11301C043C0000041C000003FC000003DC000002B
S11301D03BC0000039C0000037C0000035C000003B
S11301E033C0000031C000002FC000002DC000004B
S11301F02BC0000029C0000027C0000011241FBE2E
S1130200CFEFCDBFDFE3DEBF00E00CBF18BE19BEE9
S11302101ABE1BBE10E2A0E0B0E2E8EBFDE100E094
S11302200BBF02C007900D92A030B107D9F71BBED7
S113023020E2A0E0B0E201C01D92AD31B207E1F7C7
S11302400E94D50A0C94DA0EDBCE1F920F92009016
S11302503F000F921124009038000F921092380042
S1130260009039000F921092390000903A000F92DA
S113027010923A0000903B000F9210923B002F9393
S11302803F934F935F936F937F938F939F93AF931A
S1130290BF93EF93FF93CF93DF93CDB7DEB74DD1E9
S11302A0DF91CF91FF91EF91BF91AF919F918F918A
S11302B07F916F915F914F913F912F910F90009299
S11302C03B000F9000923A000F90009239000F907B
S11302D0009238000F9000923F000F901F901895E5
S11302E01F920F9200903F000F921124009038004B
S11302F00F9210923800009039000F92109239003A
S113030000903A000F9210923A0000903B000F9236
S113031010923B002F933F934F935F936F937F9380
S11303208F939F93AF93BF93EF93FF93CF93DF93F9
S1130330CDB7DEB702D1DF91CF91FF91EF91BF919D
S1130340AF919F918F917F916F915F914F913F9169
S11303502F910F9000923B000F9000923A000F9063
S1130360009239000F90009238000F9000923F00E5
S11303700F901F901895CF93DF93CDB7DEB72897D2
S1130380CDBFDEBF809100209091012089839A83A4
S113039080910220909103208B839C8320910420E0
S11303A0309105208B819C81FC01848195812817E3
S11303B03907E4F48B819C8101968D839E8380911F
S11303C00420909105209C012F5F3F4F209304202F
S11303D0309305209C018D819E81820F931FFC0127
S11303E0208189819A81FC0127833FC020910620C6
S11303F0309107208B819C81FC0180859185281791
S1130400390760F580910820882359F089819A8101
S1130410FC018681282F216089819A81FC01268331
S113042024C08B819C81FC01868197818F8398876E
S113043080910620909107209C012F5F3F4F2093CD
S11304400620309307202F813885820F931FFC01EB
S1130450208189819A81FC01278307C089819A813F
S113046023E0FC01238310920A202896CDBFDEBF2F
S1130470DF91CF910895CF93DF9300D000D0CDB713
S1130480DEB7809100209091012089839A83809126
S11304900220909103208B839C832091062030912D
S11304A007208B819C81FC01808591852817390761
S11304B0B0F58B819C81FC01868197818D839E831D
S11304C080910620909107209C012F5F3F4F20933D
S11304D00620309307202D813E81820F931F2981AE
S11304E03A81F9012781FC01208320910620309173
S11304F007208B819C81FC01808591852817390711
S113050030F489819A8122E0FC01238310C089811F
S11305109A8127E0FC01238310920A2008C0898174
S11305209A8123E0FC01238389EF80930A20269695
S1130530CDBFDEBFDF91CF910895CF93DF931F929C
S1130540CDB7DEB78091002090910120FC01848119
S113055089838981882F90E088709927892B99F065
S1130560809100209091012029812860FC0124833E
S1130570809100209091012023E0FC01238386EFE9
S113058080930A202AC08981882F90E0847099275B
S1130590892B39F48981882F90E080719927892BE0
S11305A059F0809100209091012023E0FC012383E5
S11305B08FEF80930A2011C08981882F90E0807486
S11305C09927892B11F0D7DE08C08981882314F478
S11305D052DF03C08BEF80930A200F90DF91CF91FD
S11305E00895CF93DF93CDB7DEB72B97CDBFDEBF92
S11305F08A876B878A8589838B858A8389818B83A4
S11306008B818C838C818695869586958D838D814F
S1130610882F90E0880F991F82959295907F982754
S1130620807F98279A5F8E839F838A818823A9F08D
S1130630898188878885882F90E09C0127703327DB
S113064081E090E002C0880F991F2A95E2F7282FD5
S11306508E819F81FC01258314C0898189878985C6
S1130660882F90E09C012770332781E090E002C03E
S1130670880F991F2A95E2F7282F8E819F81FC010C
S113068026832B96CDBFDEBFDF91CF910895CF9304
S1130690DF931F92CDB7DEB7898360E08AE0A1DFE4
S11306A060E08BE09EDF8981813021F461E08BE0A2
S11306B098DF03C061E08AE094DF0F90DF91CF916F
S11306C00895CF93DF93CDB7DEB72B97CDBFDEBFB1
S11306D08A876B878A8589838B858A8389818B83C3
S11306E08B818C838C818695869586958D838D816F
S11306F0882F90E0880F991F82959295907F982774
S1130700807F98279A5F8E839F838A818823A9F0AC
S1130710898188878885882F90E09C0127703327FA
S113072081E090E002C0880F991F2A95E2F7282FF4
S11307308E819F81FC01258314C0898189878985E5
S1130740882F90E09C012770332781E090E002C05D
S1130750880F991F2A95E2F7282F8E819F81FC012B
S113076026832B96CDBFDEBFDF91CF910895CF9323
S1130770DF93CDB7DEB780E090E880930B209093B1
S11307800C2019D008D080910B2090910C2023D0FC
S1130790DF91CF910895CF93DF93CDB7DEB760E0BB
S11307A081E18FDF61E081E18CDF60E081E189DF5D
S11307B0DF91CF910895CF93DF93CDB7DEB761E09A
S11307C080E17FDF60E080E17CDF61E080E179DF70
S11307D0DF91CF910895CF93DF9300D01F92CDB7CF
S11307E0DEB78B839C838B819C8180930B209093B9
S11307F00C2019821A821EC08B819C81098002C040
S1130800969587950A94E2F781709927892B21F0B0
S113081061E085E156DF03C060E085E152DF61E01D
S113082087E14FDF60E087E14CDF89819A8101969F
S113083089839A8389819A814097F4F2ACDF249664
S1130840CDBFDEBFDF91CF910895CF93DF931F9289
S11308501F92CDB7DEB789839A8320910B20309104
S11308600C2089819A81822B932B80930B20909367
S11308700C2080910B2090910C20ADDF0F900F90F5
S1130880DF91CF910895CF93DF931F921F92CDB73D
S1130890DEB789839A8389819A819C01209530955A
S11308A080910B2090910C208223932380930B2022
S11308B090930C2080910B2090910C208CDF0F9052
S11308C00F90DF91CF910895CF93DF9300D000D0A4
S11308D0CDB7DEB78A839B836C834D835E83198295
S11308E020C08C81882F90E02981222F30E002C023
S11308F0959587952A95E2F781709927892B71F050
S11309008981882F90E040962A813B81820F931F32
S11309102D813E81232F3327FC01208389818F5F22
S1130920898389818830E8F28D819E81817099273D
S1130930892BD1F08D819E8182709927892B39F082
S11309408A819B8105962C81FC01208306C08A81C3
S11309509B8106962C81FC0120838A819B810196D0
S11309602C81FC01208306C08A819B8102962C8104
S1130970FC0120832696CDBFDEBFDF91CF91089581
S1130980CF93DF931F92CDB7DEB78FE390E0FC01E6
S113099080818983F89489810F90DF91CF910895A4
S11309A0CF93DF931F92CDB7DEB789838FE390E0B7
S11309B02981FC0120830F90DF91CF910895CF937B
S11309C0DF931F921F92CDB7DEB78A83D9DF898365
S11309D080E590E020E530E0F90130812A81232B85
S11309E0FC0120838981DCDF0F900F90DF91CF9190
S11309F00895CF93DF931F92CDB7DEB789830F900D
S1130A00DF91CF910895CF93DF931F921F92CDB7BB
S1130A10DEB78A83B5DF898380E590E020E530E0A6
S1130A20F9012081322F2A8120952323FC01208380
S1130A308981B6DF0F900F90DF91CF910895CF9306
S1130A40DF931F92CDB7DEB789838981883019F08F
S1130A508981B5DF02C08981CCDF0F90DF91CF910E
S1130A600895CF93DF931F92CDB7DEB7898380E5D6
S1130A7090E0FC0191818981982381E0992309F414
S1130A8080E00F90DF91CF910895CF93DF931F9271
S1130A90CDB7DEB7898300008981E3DF982F81E039
S1130AA089278823C9F70F90DF91CF910895CF93B9
S1130AB0DF9300D01F92CDB7DEB780E790E0898343
S1130AC09A831C821B820DC089819A819C012F5FAD
S1130AD03F4F29833A832FEFFC0120838B818F5F63
S1130AE08B838B81873080F382E0A9DF82E0CDDFC6
S1130AF0000061E080E490E001D38C81882311F44C
S1130B0081E081DF2496CDBFDEBFDF91CF910895D0
S1130B10CF93DF9300D0CDB7DEB78B8380E091E035
S1130B20FC018481898380E091E0FC0183818A83D4
S1130B308B81282F30E081E090E002C0880F991F5C
S1130B402A95E2F7482F8B81882F90E09C012C5F37
S1130B503F4F81E090E002C0880F991F2A95E2F789
S1130B60942F982B8A8189238A838A81882F90E005
S1130B702B81222F30E02C5F3F4F02C09595879543
S1130B802A95E2F781709927892B11F084E053C0EC
S1130B908A81882F90E02B81222F30E002C0959526
S1130BA087952A95E2F781709927892B11F083E0C4
S1130BB042C08B81282F30E081E090E002C0880F92
S1130BC0991F2A95E2F7482F8B81882F90E09C018A
S1130BD02C5F3F4F81E090E002C0880F991F2A9557
S1130BE0E2F7942F982B8981892389838981882F1F
S1130BF090E02B81222F30E02C5F3F4F02C095956F
S1130C0087952A95E2F781709927892B11F082E064
S1130C1012C08981882F90E02B81222F30E002C0FE
S1130C20959587952A95E2F781709927892B11F07C
S1130C3081E001C080E02396CDBFDEBFDF91CF917C
S1130C400895CF93DF9300D01F92CDB7DEB78C8386
S1130C508C81882F90E0419682959295907F982779
S1130C60807F982789839A838C8152DF8B83898143
S1130C709A81FC018181282F206389819A81FC015A
S1130C8021838C81882F90E0880F991F835F9F4D6B
S1130C90FC0180819181892B69F08C81882F90E0FF
S1130CA0880F991F835F9F4DFC01208131818B81C7
S1130CB0F90119952496CDBFDEBFDF91CF91089538
S1130CC01F920F9200903F000F9211240090380061
S1130CD00F9210923800009039000F921092390050
S1130CE000903A000F9210923A0000903B000F924D
S1130CF010923B002F933F934F935F936F937F9397
S1130D008F939F93AF93BF93EF93FF93CF93DF930F
S1130D10CDB7DEB780E095DFDF91CF91FF91EF9102
S1130D20BF91AF919F918F917F916F915F914F91FF
S1130D303F912F910F9000923B000F9000923A0048
S1130D400F90009239000F90009238000F9000929B
S1130D503F000F901F9018951F920F9200903F0034
S1130D600F921124009038000F92109238000090D6
S1130D7039000F921092390000903A000F921092AD
S1130D803A0000903B000F9210923B002F933F9348
S1130D904F935F936F937F938F939F93AF93BF937F
S1130DA0EF93FF93CF93DF93CDB7DEB781E049DFB5
S1130DB0DF91CF91FF91EF91BF91AF919F918F916F
S1130DC07F916F915F914F913F912F910F9000927E
S1130DD03B000F9000923A000F90009239000F9060
S1130DE0009238000F9000923F000F901F901895CA
S1130DF01F920F9200903F000F9211240090380030
S1130E000F9210923800009039000F92109239001E
S1130E1000903A000F9210923A0000903B000F921B
S1130E2010923B002F933F934F935F936F937F9365
S1130E308F939F93AF93BF93EF93FF93CF93DF93DE
S1130E40CDB7DEB782E0FDDEDF91CF91FF91EF9168
S1130E50BF91AF919F918F917F916F915F914F91CE
S1130E603F912F910F9000923B000F9000923A0017
S1130E700F90009239000F90009238000F9000926A
S1130E803F000F901F9018951F920F9200903F0003
S1130E900F921124009038000F92109238000090A5
S1130EA039000F921092390000903A000F9210927C
S1130EB03A0000903B000F9210923B002F933F9317
S1130EC04F935F936F937F938F939F93AF93BF934E
S1130ED0EF93FF93CF93DF93CDB7DEB783E0B1DE1B
S1130EE0DF91CF91FF91EF91BF91AF919F918F913E
S1130EF07F916F915F914F913F912F910F9000924D
S1130F003B000F9000923A000F90009239000F902E
S1130F10009238000F9000923F000F901F90189598
S1130F201F920F9200903F000F92112400903800FE
S1130F300F921092380000903A000F9210923A00EB
S1130F408F939F93CF93DF93CDB7DEB78091152016
S1130F509091162001968093152090931620DF918E
S1130F60CF919F918F910F9000923A000F90009231
S1130F7038000F9000923F000F901F9018951F9219
S1130F800F9200903F000F921124009038000F92AE
S1130F9010923800009039000F921092390000909E
S1130FA03A000F9210923A0000903B000F92109278
S1130FB03B002F933F934F935F936F937F938F9354
S1130FC09F93AF93BF93EF93FF93CF93DF93CDB7EB
S1130FD0DEB72897CDBFDEBF2091152030911620B3
S1130FE080911720909118202817390708F463C0BE
S1130FF080E094E021E0FC01228380911B20909109
S11310001C20892B09F457C080911520909116203B
S1131010CC01A0E0B0E0AC013327222780E094E0CB
S1131020FC0180859185CC01A0E0B0E0822B932B5C
S1131030A42BB52B89839A83AB83BC83809117201F
S113104090911820CC01A0E0B0E0AC013327222716
S11310508091192090911A20CC01A0E0B0E0822B5D
S1131060932BA42BB52B8D839E83AF83B8872D81BF
S11310703E814F81588589819A81AB81BC81281733
S113108039074A075B0758F08D819E81AF81B88587
S11310900196A11DB11D89839A83AB83BC832091E2
S11310A01B2030911C2089819A81AB81BC81BC01B9
S11310B0CD01F90119952896CDBFDEBFDF91CF91FF
S11310C0FF91EF91BF91AF919F918F917F916F911C
S11310D05F914F913F912F910F9000923B000F90A1
S11310E000923A000F90009239000F90009238005D
S11310F00F9000923F000F901F9018951BBEFC01AB
S113110028ED24BF60830895CF93DF93CDB7DEB776
S11311102797CDBFDEBF8D836E837F838D818983C7
S11311208981882F90E09C012770332781E090E02B
S113113002C0880F991F2A95E2F7682F8D818A8350
S11311408A818B838B818695869586958C838C8109
S1131150882F90E0880F991F82959295907F982709
S1131160807F98279A5F9C018E819F81AC01C90181
S1131170ABDB2796CDBFDEBFDF91CF910895CF9330
S1131180DF93CDB7DEB7DF91CF910895CF93DF938F
S1131190CDB7DEB760E078E182E0B6DF60E078E109
S11311A083E0B2DF60E070E084E0AEDF60E070E036
S11311B085E2AADF60E070E089E0A6DF63E070E02A
S11311C080E1A2DF61E070E081E19EDF60E070E039
S11311D082E19ADF60E070E083E196DF63E070E033
S11311E084E192DF61E070E085E18EDF60E070E031
S11311F086E18ADF61E070E087E186DF63E070E02A
S113120080E282DF61E070E081E27EDF60E070E036
S113121082E27ADF63E070E083E276DF63E070E02D
S113122088E172DF63E070E089E16EDF63E070E023
S113123082E26ADF60E070E083E266DF63E070E030
S11312408CE162DF60E070E08EE15EDF63E070E01D
S11312508FE15ADF61E070E088E056DF61E070E022
S113126086E052DF61E070E087E04EDF60E070E02E
S113127080E04ADF60E078E18DE146DF61E070E024
S11312808AE042DF61E070E08BE03EDF61E070E025
S113129081E03ADFDF91CF910895CF93DF93CDB70B
S11312A0DEB76DDF73DF63DA81E0F1D9DF91CF91CF
S11312B00895CF93DF93CDB7DEB780E098E4A8EE2E
S11312C0B1E0BC01CD01DF91CF910895CF93DF93BD
S11312D01F92CDB7DEB71982ECDFDC01CB01298187
S11312E0222F30E004C0B695A795979587952A9547
S11312F0D2F7BC01CD010F90DF91CF910895CF9328
S1131300DF93CDB7DEB7E2DFDC01CB01BC01CD0159
S1131310DF91CF910895CF93DF93CDB7DEB7EFDFA1
S1131320DC01CB01BC01CD01DF91CF910895CF93B6
S1131330DF93CDB7DEB7EFDFDC01CB01BC01CD011C
S1131340DF91CF9108956150710981099109D9F70D
S11313500895CF93DF93CDB7DEB72B97CDBFDEBF14
S11313608A876B878A8589838B858A8389818B8326
S11313708B818C838C818695869586958D838D81D2
S1131380882F90E0880F991F82959295907F9827D7
S1131390807F98279A5F8E839F838A818823A9F010
S11313A0898188878885882F90E09C01277033275E
S11313B081E090E002C0880F991F2A95E2F7282F58
S11313C08E819F81FC01258314C089818987898549
S11313D0882F90E09C012770332781E090E002C0C1
S11313E0880F991F2A95E2F7282F8E819F81FC018F
S11313F026832B96CDBFDEBFDF91CF910895CF9387
S1131400DF93CDB7DEB72897CDBFDEBF8887888549
S1131410898389818A838A818B838B81869586954A
S113142086958C838C81882F90E0880F991F8295F4
S11314309295907F9827807F98279A5F8D839E83CB
S113144089818F838F81882F90E09C0127703327B7
S113145081E090E002C0880F991F2A95E2F7282FB7
S11314608D819E81FC0127832896CDBFDEBFDF914D
S1131470CF910895CF93DF93CDB7DEB72897CDBF33
S1131480DEBF88878885898389818A838A818B8363
S11314908B818695869586958C838C81882F90E0A8
S11314A0880F991F82959295907F9827807F98271F
S11314B09A5F8D839E838D819E81FC014085898105
S11314C08F838F81882F90E09C012770332781E0E0
S11314D090E002C0880F991F2A95E2F7942F982371
S11314E081E0992309F480E02896CDBFDEBFDF9127
S11314F0CF910895CF93DF93CDB7DEB781E07FDF3F
S1131500DF91CF910895CF93DF93CDB7DEB761E03C
S113151088E01FDFDF91CF910895CF93DF93CDB79C
S1131520DEB760E088E015DFDF91CF910895CF93B7
S1131530DF93CDB7DEB761E086E00BDFDF91CF91BB
S11315400895CF93DF93CDB7DEB760E086E001DF87
S1131550DF91CF910895CF93DF93CDB7DEB761E0EC
S113156087E0F7DEDF91CF910895CF93DF93CDB776
S1131570DEB760E087E0EDDEDF91CF910895CF9391
S1131580DF93CDB7DEB78DE175DF882F90E021E0E2
S113159030E0A901481B590BCA0121E0892B09F449
S11315A020E0822FDF91CF9108952F923F924F92A6
S11315B05F926F927F928F929F92AF92BF92CF92DF
S11315C0DF92EF92FF920F931F93CF93DF93CDB7E8
S11315D0DEB7A097CDBFDEBF6ADA5FDEA8DEDC012E
S11315E0CB011C012D01612C712C4301A22CB32CC5
S11315F0C42CD52CE62CF72C082D192D2A2D3B2D87
S11316004C2D5D2D6E2D7F2D802F912F02E0A7D3C1
S1131610A22EB32EC42ED52EE62EF72E082F192F68
S11316202A2D3B2D4C2D5D2D6E2D7F2D802F912F3E
S1131630A22CB32CC42CD52CE62CF72C082D192D58
S1131640B0D3A22EB32EC42ED52EE62EF72E082FFD
S1131650192F2A2D3B2D4C2D5D2D6E2D7F2D802F86
S1131660912F03E07CD329873A874B875C876D876A
S11316707E878F87988BA984BA84CB84DC84ED849D
S1131680FE840F8518892A2D3B2D4C2D5D2D6E2D42
S11316907F2D802F912FA22CB32CC42CD52CE62C7B
S11316A0F72C082D192D74D3A22EB32EC42ED52EAB
S11316B0E62EF72E082F192F2A2D3B2D4C2D5D2DAC
S11316C06E2D7F2D802F912F03E049D3222E332EB0
S11316D0442E552E662E772E882E992EA22CB32CAE
S11316E0C42CD52CE62CF72C082D192D2A2C3B2C98
S11316F04C2C5D2C6E2C7F2C802E912E222D332D84
S1131700442D552D662D772D882D992D29513C4F2B
S11317104F4F5F4F6F4F7F4F8F4F9F4FA22EB32E70
S1131720C42ED52EE62EF72E082F192F2A2D3B2D49
S11317304C2D5D2D6E2D7F2D802F912F71D2DC01CC
S1131740CB0120E030E84BEB55E4BC01CD01C6D120
S1131750DC01CB01BC01CD012ED2A22EB32EC42EAE
S1131760D52EE62EF72E082F192FD601C501BC0160
S1131770CD01E9DD88E09CE068D8D9DDDC01CB014E
S11317801C012D01612C712C4301A22CB32CC42CFF
S1131790D52CE62CF72C082D192D2A2D3B2D4C2D5C
S11317A05D2D6E2D7F2D802F912F02E0D8D2A22E99
S11317B0B32EC42ED52EE62EF72E082F192F2A2D40
S11317C03B2D4C2D5D2D6E2D7F2D802F912FA22C26
S11317D0B32CC42CD52CE62CF72C082D192DE1D2D2
S11317E0A22EB32EC42ED52EE62EF72E082F192F97
S11317F02A2D3B2D4C2D5D2D6E2D7F2D802F912F6D
S113180003E0ADD2298B3A8B4B8B5C8B6D8B7E8B3B
S11318108F8B988FA988BA88CB88DC88ED88FE885E
S11318200F89188D2A2D3B2D4C2D5D2D6E2D7F2D6E
S1131830802F912FA22CB32CC42CD52CE62CF72C62
S1131840082D192DA5D2A22EB32EC42ED52EE62EE8
S1131850F72E082F192F2A2D3B2D4C2D5D2D6E2D83
S11318607F2D802F912F03E07AD2222E332E442E07
S1131870552E662E772E882E992EA22CB32CC42C8E
S1131880D52CE62CF72C082D192D2A2C3B2C4C2C6E
S11318905D2C6E2C7F2C802E912E222D332D442DE9
S11318A0552D662D772D882D992D29513C4F4F4F5D
S11318B05F4F6F4F7F4F8F4F9F4FA22EB32EC42E7B
S11318C0D52EE62EF72E082F192F2A2D3B2D4C2D21
S11318D05D2D6E2D7F2D802F912FA2D1DC01CB01A8
S11318E020E030E84BEB55E4BC01CD01F7D0DC013E
S11318F0CB01BC01CD015FD1A22EB32EC42ED52EB7
S1131900E62EF72E082F192FD601C501BC01CD01F3
S11319101ADD61E08BE01DDD84E790E00E94250480
S113192006DDDC01CB018C019D0140E050E0BA01F1
S113193009831A832B833C834D835E836F8378876B
S113194089809A80AB80BC80CD80DE80EF80F88473
S1131950282D392D4A2D5B2D6C2D7D2D8E2D9F2DFF
S113196002E0FDD1A22EB32EC42ED52EE62EF72EE4
S1131970082F192F2A2D3B2D4C2D5D2D6E2D7F2DDB
S1131980802F912FA980BA80CB80DC80ED80FE80EF
S11319900F81188506D2822E932EA42EB52EC62E24
S11319A0D72EE82EF92E282D392D4A2D5B2D6C2D9E
S11319B07D2D8E2D9F2D05E0D2D1298F3A8F4B8F0F
S11319C05C8F6D8F7E8F8F8F98A3282D392D4A2D94
S11319D05B2D6C2D7D2D8E2D9F2DA98CBA8CCB8CDF
S11319E0DC8CED8CFE8C0F8D18A1D2D1A22EB32EDF
S11319F0C42ED52EE62EF72E082F192F2A2D3B2D77
S1131A004C2D5D2D6E2D7F2D802F912FA980BA80B6
S1131A10CB80DC80ED80FE800F811885B9D1A22EA9
S1131A20B32EC42ED52EE62EF72E082F192F2A2DCD
S1131A303B2D4C2D5D2D6E2D7F2D802F912F295107
S1131A403C4F4F4F5F4F6F4F7F4F8F4F9F4FA22E93
S1131A50B32EC42ED52EE62EF72E082F192F2A2D9D
S1131A603B2D4C2D5D2D6E2D7F2D802F912FD8D0A9
S1131A70DC01CB0120E030E84BEB55E4BC01CD01A7
S1131A802DD0DC01CB01BC01CD0195D0A22EB32E0B
S1131A90C42ED52EE62EF72E082F192FD601C501F8
S1131AA0BC01CD0150DC80E190E00E94430467DD7D
S1131AB0882311F028DD01C030DD1CDD89E1DADC8A
S1131AC0882311F034DD01C03CDD8CE1D3DC8823B4
S1131AD011F041DD01C049DD0DDDE9CF0CD005C1B8
S1131AE0FDD040F0F4D030F021F45F3F19F0D6C0BF
S1131AF051112FC1D9C00AD198F39923C9F35523A1
S1131B00B1F3951B550BBB27AA27621773078407EC
S1131B1038F09F5F5F4F220F331F441FAA1FA9F3A2
S1131B2033D00E2E3AF0E0E830D091505040E69594
S1131B30001CCAF729D0FE2F27D0660F771F881FF5
S1131B40BB1F261737074807AB07B0E809F0BB0BE4
S1131B50802DBF01FF2793585F4F2AF09E3F510508
S1131B6068F09CC0F6C05F3FECF3983EDCF38695CA
S1131B7077956795B795F7959F5FC9F7880F911D7E
S1131B809695879597F90895E1E0660F771F881F6A
S1131B90BB1F621773078407BA0720F0621B730B1D
S1131BA0840BBA0BEE1F88F7E0950895BEE304D0CA
S1131BB008F490E80895BFE322273327A901AED0A3
S1131BC058F19F5740F1B91738F1BFE3B91B992772
S1131BD0B8503AF4660F771F881F991FB395D2F354
S1131BE016C0B8504AF0232F342F452F562F672F95
S1131BF0782F8827B850BAF7B85F49F0869577955B
S1131C0067955795479537952795BA95B9F70EF483
S1131C104ED088940895889460E070E0CB010895D4
S1131C20E894F92F96EBFF2381F01216130614069D
S1131C30440B9395F695879577956795579540400E
S1131C40FF23B9F71BC099270895882351F49850AE
S1131C50D2F7872B762F652F542F432F322F20E076
S1131C60B1F3121613061406440B88233AF09A951E
S1131C70440F551F661F771F881FCAF755234AF460
S1131C80440F551F11F460FF04C06F5F7F4F8F4FE7
S1131C909F4F880F9695879597F9089597F99F67B1
S1131CA080E870E060E008959FEF80EC08959095DF
S1131CB080957095609550954095309521953F4F4E
S1131CC04F4F5F4F6F4F7F4F8F4F9F4F08950024AB
S1131CD00A941616170618060906089500240A948D
S1131CE012161306140605060895092E0394000C13
S1131CF011F4882352F0BB0F40F4BF2B11F460FFA2
S1131D0004C06F5F7F4F8F4F9F4F089557FD9058CA
S1131D10440F551F59F05F3F71F04795880F97FBAB
S1131D20991F61F09F3F79F0879508951216130665
S1131D301406551FF2CF4695F1DF08C01616170694
S1131D401806991FF1CF86957105610508940895C9
S1131D50E894BB2766277727CB0197F908950F935B
S1131D60083090F0982F872F762F652F542F432F0C
S1131D70322F22270850F4CF220F331F441F551F40
S1131D80661F771F881F991F0A95B2F70F91089550
S1131D902A0D3B1D4C1D5D1D6E1D7F1D801F911F57
S1131DA008952A193B094C095D096E097F09800BC6
S10B1DB0910B0895F894FFCF94
S9030000FC
