:10000000FDC000001FC100001DC100001BC1000099
:1000100019C1000017C10000B9C500001FC60000CB
:100020008BC60000F4C6000051C7000072C7000074
:1000300009C1000008C1000005C1000003C10000A3
:1000400001C10000FFC00000FDC00000FBC00000B7
:10005000F9C00000F7C00000F5C00000F3C00000C8
:10006000F1C00000EFC00000EDC00000EBC00000D8
:10007000E9C00000E7C00000E5C00000E3C00000E8
:10008000E1C00000DFC00000DDC00000DBC00000F8
:10009000D9C00000D7C00000D5C00000D3C0000008
:1000A000D1C00000CFC00000CDC00000CBC0000018
:1000B000C9C00000C7C000009AC10000C3C0000052
:1000C000C1C00000BFC00000BDC00000BBC0000038
:1000D000B9C00000B7C00000B5C00000B3C0000048
:1000E000B1C00000AFC00000ADC00000ABC0000058
:1000F000A9C00000A7C00000A5C00000A3C0000068
:10010000A1C000009FC000009DC000009BC0000077
:1001100099C0000097C0000095C0000093C0000087
:1001200091C000008FC000008DC000008BC0000097
:1001300089C0000087C0000085C0000083C00000A7
:1001400081C000007FC000007DC000007BC00000B7
:1001500079C0000077C0000075C0000073C00000C7
:1001600071C000006FC000006DC000006BC00000D7
:1001700069C0000067C0000065C0000063C00000E7
:1001800061C000005FC000005DC000005BC00000F7
:1001900059C0000057C0000055C0000053C0000007
:1001A00051C000004FC000004DC000004BC0000017
:1001B00049C0000047C0000045C0000043C0000027
:1001C00041C000003FC000003DC000003BC0000037
:1001D00039C0000037C0000035C0000033C0000047
:1001E00031C000002FC000002DC000002BC0000057
:1001F00029C0000027C0000025C0000011241FBE38
:10020000CFEFCDBFDFE3DEBF00E00CBF18BE19BEED
:100210001ABE1BBE10E2A0E0B0E2E2E3F2E100E0B1
:100220000BBF02C007900D92A030B107D9F71BBEDB
:1002300020E2A0E0B0E201C01D92AD31B207E1F7CB
:10024000A2D7F5C7DDCE1F920F920FB60F921124E1
:1002500008B60F9218BE09B60F9219BE0AB60F92D1
:100260001ABE0BB60F921BBE2F933F934F935F9313
:100270006F937F938F939F93AF93BF93CF93DF93AE
:10028000EF93FF93E0910020F0910120848183FDA2
:100290002BC0982F947141F486FD2EC087FD5DC060
:1002A0008BEF80930A2005C083E083838FEF8093D8
:1002B0000A20FF91EF91DF91CF91BF91AF919F9174
:1002C0008F917F916F915F914F913F912F910F90FF
:1002D0000BBE0F900ABE0F9009BE0F9008BE0F9084
:1002E0000FBE0F901F9018958860848383E08383EE
:1002F00086EF80930A20DDCFA0910220B0910320E9
:10030000809104209091052014962D913C91159791
:1003100082179307ACF080910620909107201896E1
:100320002D913C9119978217930708F03FC02091B7
:100330000820222309F445C0868181608683B9CFD5
:100340009C012F5F3F4F2093042030930520A80F7E
:10035000B91F11968C918783ACCFA0910220B091E8
:100360000320809106209091072018962D913C91B2
:10037000199782179307F8F416966D917C91179749
:100380009C012F5F3F4F2093062030930720478129
:10039000EB01C80FD91F488318968D919C9119972E
:1003A00028173907F8F482E0838383CF83E08383BF
:1003B00010920A207ECF83E0838389EF80930A2006
:1003C00078CF16962D913C911797AC014F5F5F4FF8
:1003D0004093062050930720D901A80FB91F8C9194
:1003E000878367CF87E0838310920A2062CF1F92B2
:1003F0000F920FB60F92112408B60F9218BE09B6CD
:100400000F9219BE0AB60F921ABE0BB60F921BBE00
:100410002F933F934F935F936F937F938F939F930C
:10042000AF93BF93CF93DF93EF93FF93E0910020BF
:10043000F0910120848183FD2BC0982F947141F4A9
:1004400086FD2EC087FD5DC08BEF80930A2005C01E
:1004500083E083838FEF80930A20FF91EF91DF91F8
:10046000CF91BF91AF919F918F917F916F915F914C
:100470004F913F912F910F900BBE0F900ABE0F909E
:1004800009BE0F9008BE0F900FBE0F901F901895D9
:100490008860848383E0838386EF80930A20DDCFA6
:1004A000A0910220B091032080910420909105201A
:1004B00014962D913C91159782179307ACF080917B
:1004C00006209091072018962D913C91199782173C
:1004D000930708F03FC020910820222309F445C06B
:1004E000868181608683B9CF9C012F5F3F4F209327
:1004F000042030930520A80FB91F11968C91878393
:10050000ACCFA0910220B091032080910620909161
:10051000072018962D913C91199782179307F8F4AC
:1005200016966D917C9117979C012F5F3F4F2093FA
:100530000620309307204781EB01C80FD91F48835D
:1005400018968D919C91199728173907F8F482E035
:10055000838383CF83E0838310920A207ECF83E05E
:10056000838389EF80930A2078CF16962D913C9152
:100570001797AC014F5F5F4F4093062050930720C1
:10058000D901A80FB91F8C91878367CF87E0838338
:1005900010920A2062CF8091080681FD04C082E09B
:1005A00080930506089582E080930606089594E0FE
:1005B0009093260628E020932606813019F0909328
:1005C0002506089520932506089580E090E88093FD
:1005D0000B2090930C20E0E4F6E081E08583868395
:1005E000858322E026832583268390E2968380E814
:1005F0008583868396838583868396838583868396
:100600009683858386839683858386839683858375
:100610008683968385838683968385838683968364
:100620008583868396838583868396838583868365
:100630009683858386839683858386839683858345
:1006400086839683858386839583858386832683A5
:1006500025832683089520910B2030910C20822B36
:10066000932B80930B2090930C2020E280FDBBC045
:100670002093460620E8209345062093460620E274
:1006800081FDBBC02093460620E8209345062093B9
:10069000460620E282FDBBC02093460620E8209358
:1006A00045062093460620E283FDBBC02093460604
:1006B00020E8209345062093460620E284FDBBC037
:1006C0002093460620E8209345062093460620E224
:1006D00085FDBBC02093460620E820934506209365
:1006E000460620E286FDBBC02093460620E8209304
:1006F00045062093460620E287FDBBC020934606B0
:1007000020E8209345062093460620E290FDBBC0DA
:100710002093460620E82093450620934606292F7D
:10072000269520FDCBC020E22093460620E82093AA
:10073000450620934606292F2695269520FDBAC00A
:1007400020E22093460620E82093450620934606A3
:10075000292F26952695269520FDA8C020E22093D6
:10076000460620E82093450620934606292F229529
:100770002F7020FD97C020E22093460620E82093AA
:10078000450620934606292F22952695277020FDA1
:1007900085C020E22093460620E82093450620935A
:1007A00046069C0124E0329F212D3327112420FD91
:1007B00071C020E22093460620E82093450620934E
:1007C000460697FF63C080E28093450680E88093E9
:1007D00045068093460682E0809346068093450650
:1007E0008093460608952093450620E82093450609
:1007F0002093460620E281FF45CF2093450620E85E
:10080000209345062093460620E282FF45CF2093A1
:10081000450620E8209345062093460620E283FF04
:1008200045CF2093450620E82093450620934606B1
:1008300020E284FF45CF2093450620E8209345061B
:100840002093460620E285FF45CF2093450620E809
:10085000209345062093460620E286FF45CF20934D
:10086000450620E8209345062093460620E287FFB0
:1008700045CF2093450620E8209345062093460661
:1008800020E290FF45CF2093450644CF80E280933D
:1008900046069CCF20E2209345068ECF20E220938F
:1008A00045067ACF20E22093450668CF20E22093C8
:1008B000450657CF20E22093450645CF20E22093FE
:1008C000450634CF8095909520910B2030910C20D7
:1008D0008223932380930B2090930C2020E280FDB1
:1008E000BBC02093460620E8209345062093460689
:1008F00020E281FDBBC02093460620E820934506F8
:100900002093460620E282FDBBC02093460620E8E5
:10091000209345062093460620E283FDBBC020932A
:10092000460620E8209345062093460620E284FDF3
:10093000BBC02093460620E8209345062093460638
:1009400020E285FDBBC02093460620E820934506A3
:100950002093460620E286FDBBC02093460620E891
:10096000209345062093460620E287FDBBC02093D6
:10097000460620E8209345062093460620E290FD97
:10098000BBC02093460620E82093450620934606E8
:10099000292F269520FDCBC020E22093460620E893
:1009A0002093450620934606292F2695269520FD5F
:1009B000BAC020E22093460620E820934506209303
:1009C0004606292F26952695269520FDA8C020E2CB
:1009D0002093460620E82093450620934606292FBB
:1009E00022952F7020FD97C020E22093460620E834
:1009F0002093450620934606292F22952695277099
:100A000020FD85C020E22093460620E8209345067D
:100A1000209346069C0124E0329F212D3327112488
:100A200020FD71C020E22093460620E82093450671
:100A30002093460697FF63C080E28093450680E8D6
:100A4000809345068093460682E080934606809315
:100A500045068093460608952093450620E8209396
:100A600045062093460620E281FF45CF20934506A8
:100A700020E8209345062093460620E282FF45CFDA
:100A80002093450620E8209345062093460620E261
:100A900083FF45CF2093450620E820934506209309
:100AA000460620E284FF45CF2093450620E82093A8
:100AB00045062093460620E285FF45CF2093450654
:100AC00020E8209345062093460620E286FF45CF86
:100AD0002093450620E8209345062093460620E211
:100AE00087FF45CF2093450620E8209345062093B5
:100AF000460620E290FF45CF2093450644CF80E292
:100B0000809346069CCF20E2209345068ECF20E2BC
:100B1000209345067ACF20E22093450668CF20E255
:100B20002093450657CF20E22093450645CF20E28B
:100B30002093450634CFFC01262F30E060FD508B1A
:100B400021FD518B22FD528B23FD538B24FD548BB1
:100B500025FD558B26FD568B220F232F221F330B8D
:100B6000232B09F0578B40FF05C041FD05C066836C
:100B7000618308956283089565836183089547E0E2
:100B800050E06FEF70E080E790E04AC31F920F9251
:100B90000FB60F92112408B60F9218BE09B60F9225
:100BA00019BE0BB60F921BBE2F933F934F935F93CB
:100BB0006F937F938F939F93AF93BF93EF93FF9325
:100BC0008091040190910301292F2171022E000CC4
:100BD000330B35952795359527953595279535957B
:100BE0002795232B21F184E090911101906390933C
:100BF0001101E0910D20F0910E20309709F0199528
:100C0000FF91EF91BF91AF919F918F917F916F91E4
:100C10005F914F913F912F910F900BBE0F9009BEA6
:100C20000F9008BE0F900FBE0F901F90189590FF69
:100C300002C083E0D9CF282F2171022E000C330B84
:100C4000359527953595279535952795359527958C
:100C5000232B11F082E0C8CF8170C6CF1F920F9274
:100C60000FB60F92112408B60F9218BE09B60F9254
:100C700019BE0BB60F921BBE2F933F934F935F93FA
:100C80006F937F938F939F93AF93BF93EF93FF9354
:100C900020910401809103018272082E000C990BAF
:100CA000AC0155954795559547955595479555955B
:100CB000479555954795452B21F184E09091210169
:100CC000906390932101E0910F20F09110203097D4
:100CD00009F01995FF91EF91BF91AF919F918F917D
:100CE0007F916F915F914F913F912F910F900BBE2C
:100CF0000F9009BE0F9008BE0F900FBE0F901F906F
:100D0000189581FF02C083E0D9CF822F8272082E0E
:100D1000000C990B9C0135952795359527953595B0
:100D200027953595279535952795232B11F082E04A
:100D3000C5CF86958170C2CF1F920F920FB60F92CA
:100D4000112408B60F9218BE09B60F9219BE0BB641
:100D50000F921BBE2F933F934F935F936F937F939D
:100D60008F939F93AF93BF93EF93FF9320910401D1
:100D7000809103018474082E000C990BAC01042EA1
:100D8000452F000C441F550B000C441F551F452BCD
:100D900021F184E090913101906390933101E091D1
:100DA0001120F0911220309709F01995FF91EF91E1
:100DB000BF91AF919F918F917F916F915F914F9173
:100DC0003F912F910F900BBE0F9009BE0F9008BE60
:100DD0000F900FBE0F901F90189582FF02C083E006
:100DE000D9CF822F8474082E000C990B9C01022EFF
:100DF000232F000C221F330B000C221F331F232B29
:100E000011F082E0C7CF82FB882780F9C3CF1F9201
:100E10000F920FB60F92112408B60F9218BE09B6A2
:100E20000F9219BE0BB60F921BBE2F933F934F9399
:100E30005F936F937F938F939F93AF93BF93EF9342
:100E4000FF932091040180910301887890E0AC0128
:100E5000440F452F441F550B452B21F184E0909101
:100E60004101906390934101E0911320F09114208F
:100E7000309709F01995FF91EF91BF91AF919F9134
:100E80008F917F916F915F914F913F912F910F9033
:100E90000BBE0F9009BE0F9008BE0F900FBE0F90B3
:100EA0001F90189583FF02C083E0D9CF2878822F46
:100EB00090E09C01220F232F221F330B232B11F0D4
:100EC00082E0CDCF83FB882780F9C9CF1F920F9294
:100ED0000FB60F92112408B60F9218BE0BB60F92E0
:100EE0001BBE8F939F93EF93FF93E5E1F0E2808128
:100EF0009181019680839183FF91EF919F918F91D2
:100F00000F900BBE0F9008BE0F900FBE0F901F905A
:100F100018951F920F920FB60F92112408B60F92D8
:100F200018BE09B60F9219BE0BB60F921BBE0F93D7
:100F30001F932F933F934F935F936F937F938F9361
:100F40009F93AF93BF93EF93FF93409115205091E0
:100F5000162080911720909118204817590778F192
:100F600021E020930204E0911B20F0911C20309797
:100F700031F1009108041091090460E070E0BA01B9
:100F80005527442720E030E0402B512B622B732B58
:100F9000A0E0B0E0DC01992788270091192010918A
:100FA0001A2020E030E0802B912BA22BB32B84174A
:100FB0009507A607B707E0F4CB01BA011995FF9191
:100FC000EF91BF91AF919F918F917F916F915F91C1
:100FD0004F913F912F911F910F910F900BBE0F904A
:100FE00009BE0F9008BE0F900FBE0F901F9018956E
:100FF000AC01BD014F5F5F4F6F4F7F4FDDCF40E0D2
:1010000058E164E080E096E096DD40E058E168E079
:1010100080E096E090DD40E050E060E180E096E026
:101020008ADD40E050E060E280E896E084DD40E068
:1010300050E062E080E296E07EDD43E050E061E077
:1010400080E496E078DD41E050E062E080E496E004
:1010500072DD40E050E064E080E496E06CDD40E06A
:1010600050E068E080E496E066DD43E050E060E157
:1010700080E496E060DD41E050E060E280E496E0EC
:101080005ADD40E050E060E480E496E054DD41E069
:1010900050E060E880E496E04EDD43E050E061E03F
:1010A00080E896E048DD41E050E062E080E896E0CC
:1010B00042DD40E050E064E080E896E03CDD43E063
:1010C00050E068E080E896E036DD43E050E061E023
:1010D00080E696E030DD43E050E062E080E696E0B6
:1010E0002ADD43E050E064E080E896E024DD40E063
:1010F00050E068E080E896E01EDD43E050E060E10B
:1011000080E696E018DD40E050E060E480E696E09E
:1011100012DD43E050E060E880E696E00CDD41E05F
:1011200050E061E080E296E006DD41E050E060E4FE
:1011300080E096E000DD41E050E060E880E096E08D
:10114000FADC40E050E061E080E096E0F4DC40E072
:1011500058E160E280E696E0EEDC41E050E064E0D9
:1011600080E296E0E8DC41E050E068E080E296E072
:10117000E2DC41E050E062E080E096E0DCCC3FDF82
:1011800024DA81E014CAFBDCFADF8AE694E0A1E00D
:10119000B0E00197A109B109E1F788E09CE05BDAD2
:1011A0008AE694E0A1E0B0E00197A109B109E1F776
:1011B00088E08093250684E790E04DDA80E090E0B7
:1011C0000196853322E89207D9F780E190E07ADB37
:1011D00011E0D0E4C0E810C010932506DCD980915E
:1011E000680681FF14C0D09305068091680684FFCD
:1011F00014C0C0930506CFD98091680685FFECCF57
:1012000010932606C8D98091680681FDECCFD09353
:1012100006068091680684FDECCFC0930606EBCFEE
:10122000DC0101C06D9341505040E0F70895F894FF
:02123000FFCFEE
:00000001FF
