:10000000FDC0000016C1000014C1000012C10000B4
:1000100010C100000EC100007CC50000D3C5000067
:1000200030C600008AC60000D8C60000EFC6000037
:1000300000C10000FFC00000FCC00000FAC00000CA
:10004000F8C00000F6C00000F4C00000F2C00000DC
:10005000F0C00000EEC00000ECC00000EAC00000EC
:10006000E8C00000E6C00000E4C00000E2C00000FC
:10007000E0C00000DEC00000DCC00000DAC000000C
:10008000D8C00000D6C00000D4C00000D2C000001C
:10009000D0C00000CEC00000CCC00000CAC000002C
:1000A000C8C00000C6C00000C4C00000C2C000003C
:1000B000C0C00000BEC000007DC10000BAC000008A
:1000C000B8C00000B6C00000B4C00000B2C000005C
:1000D000B0C00000AEC00000ACC00000AAC000006C
:1000E000A8C00000A6C00000A4C00000A2C000007C
:1000F000A0C000009EC000009CC000009AC000008C
:1001000098C0000096C0000094C0000092C000009B
:1001100090C000008EC000008CC000008AC00000AB
:1001200088C0000086C0000084C0000082C00000BB
:1001300080C000007EC000007CC000007AC00000CB
:1001400078C0000076C0000074C0000072C00000DB
:1001500070C000006EC000006CC000006AC00000EB
:1001600068C0000066C0000064C0000062C00000FB
:1001700060C000005EC000005CC000005AC000000B
:1001800058C0000056C0000054C0000052C000001B
:1001900050C000004EC000004CC000004AC000002B
:1001A00048C0000046C0000044C0000042C000003B
:1001B00040C000003EC000003CC000003AC000004B
:1001C00038C0000036C0000034C0000032C000005B
:1001D00030C000002EC000002CC000002AC000006B
:1001E00028C0000026C0000024C0000022C000007B
:1001F00020C000001EC000001CC0000011241FBE53
:10020000CFEFCDBFD7E2DEBF10E2A0E0B0E2E6E183
:10021000F1E102C005900D92A030B107D9F720E2BC
:10022000A0E0B0E201C01D92AD31B207E1F719D7ED
:1002300070C7E6CE1F920F920FB60F9211242F9324
:100240003F934F935F936F937F938F939F93AF935E
:10025000BF93CF93DF93EF93FF93E0910020F09152
:100260000120848183FD23C0982F947141F486FD81
:1002700026C087FD55C08BEF80930A2005C083E020
:1002800083838FEF80930A20FF91EF91DF91CF91CD
:10029000BF91AF919F918F917F916F915F914F919E
:1002A0003F912F910F900FBE0F901F90189588606F
:1002B000848383E0838386EF80930A20E5CFA09137
:1002C0000220B09103208091042090910520149683
:1002D0002D913C91159782179307ACF080910620E1
:1002E0009091072018962D913C91199782179307AA
:1002F00008F03FC020910820222309F445C08681E0
:1003000081608683C1CF9C012F5F3F4F20930420E3
:1003100030930520A80FB91F11968C918783B4CF15
:10032000A0910220B0910320809106209091072097
:1003300018962D913C91199782179307F8F4169609
:100340006D917C9117979C012F5F3F4F2093062062
:10035000309307204781EB01C80FD91F48831896B7
:100360008D919C91199728173907F8F482E08383BF
:100370008BCF83E0838310920A2086CF83E0838330
:1003800089EF80930A2080CF16962D913C91179784
:10039000AC014F5F5F4F4093062050930720D90177
:1003A000A80FB91F8C9187836FCF87E0838310924A
:1003B0000A206ACF1F920F920FB60F9211242F932B
:1003C0003F934F935F936F937F938F939F93AF93DD
:1003D000BF93CF93DF93EF93FF93E0910020F091D1
:1003E0000120848183FD23C0982F947141F486FD00
:1003F00026C087FD55C08BEF80930A2005C083E09F
:1004000083838FEF80930A20FF91EF91DF91CF914B
:10041000BF91AF919F918F917F916F915F914F911C
:100420003F912F910F900FBE0F901F9018958860ED
:10043000848383E0838386EF80930A20E5CFA091B5
:100440000220B09103208091042090910520149601
:100450002D913C91159782179307ACF0809106205F
:100460009091072018962D913C9119978217930728
:1004700008F03FC020910820222309F445C086815E
:1004800081608683C1CF9C012F5F3F4F2093042062
:1004900030930520A80FB91F11968C918783B4CF94
:1004A000A0910220B0910320809106209091072016
:1004B00018962D913C91199782179307F8F4169688
:1004C0006D917C9117979C012F5F3F4F20930620E1
:1004D000309307204781EB01C80FD91F4883189636
:1004E0008D919C91199728173907F8F482E083833E
:1004F0008BCF83E0838310920A2086CF83E08383AF
:1005000089EF80930A2080CF16962D913C91179702
:10051000AC014F5F5F4F4093062050930720D901F5
:10052000A80FB91F8C9187836FCF87E083831092C8
:100530000A206ACF94E09093260628E020932606AE
:10054000813019F09093250608952093250608958B
:1005500080E090E880930B2090930C20E0E4F6E09C
:1005600081E085838683858322E026832583268315
:1005700090E2968380E8858386839683858386834D
:1005800096838583868396838583868396838583F6
:1005900086839683858386839683858386839683E5
:1005A00085838683968385838683968385838683E6
:1005B00096838583868396838583868396838583C6
:1005C00086839683858386839683858386839583B6
:1005D00085838683268325832683089520910B2097
:1005E00030910C20822B932B80930B2090930C2026
:1005F00020E280FDBBC02093460620E820934506FC
:100600002093460620E281FDBBC02093460620E8E9
:10061000209345062093460620E282FDBBC020932E
:10062000460620E8209345062093460620E283FDF7
:10063000BBC02093460620E820934506209346063B
:1006400020E284FDBBC02093460620E820934506A7
:100650002093460620E285FDBBC02093460620E895
:10066000209345062093460620E286FDBBC02093DA
:10067000460620E8209345062093460620E287FDA3
:10068000BBC02093460620E82093450620934606EB
:1006900020E290FDBBC02093460620E8209345064B
:1006A00020934606292F269520FDCBC020E22093DB
:1006B000460620E82093450620934606292F2695D6
:1006C000269520FDBAC020E22093460620E820931C
:1006D000450620934606292F26952695269520FD2A
:1006E000A8C020E22093460620E8209345062093E8
:1006F0004606292F22952F7020FD97C020E22093D7
:10070000460620E82093450620934606292F229589
:100710002695277020FD85C020E22093460620E81C
:1007200020934506209346069C0124E0329F212D0C
:100730003327112420FD71C020E22093460620E8D3
:10074000209345062093460697FF63C080E280937E
:10075000450680E8809345068093460682E08093B4
:1007600046068093450680934606089520934506E5
:1007700020E8209345062093460620E281FF45CFDE
:100780002093450620E8209345062093460620E264
:1007900082FF45CF2093450620E82093450620930D
:1007A000460620E283FF45CF2093450620E82093AC
:1007B00045062093460620E284FF45CF2093450658
:1007C00020E8209345062093460620E285FF45CF8A
:1007D0002093450620E8209345062093460620E214
:1007E00086FF45CF2093450620E8209345062093B9
:1007F000460620E287FF45CF2093450620E8209358
:1008000045062093460620E290FF45CF20934506FB
:1008100044CF80E2809346069CCF20E22093450699
:100820008ECF20E2209345067ACF20E22093450622
:1008300068CF20E22093450657CF20E2209345065B
:1008400045CF20E22093450634CF809590952091A6
:100850000B2030910C208223932380930B209093C4
:100860000C2020E280FDBBC02093460620E82093A8
:1008700045062093460620E281FDBBC02093460634
:1008800020E8209345062093460620E282FDBBC067
:100890002093460620E8209345062093460620E252
:1008A00083FDBBC02093460620E820934506209395
:1008B000460620E284FDBBC02093460620E8209334
:1008C00045062093460620E285FDBBC020934606E0
:1008D00020E8209345062093460620E286FDBBC013
:1008E0002093460620E8209345062093460620E202
:1008F00087FDBBC02093460620E820934506209341
:10090000460620E290FDBBC02093460620E82093D7
:10091000450620934606292F269520FDCBC020E2D0
:100920002093460620E82093450620934606292F6B
:100930002695269520FDBAC020E22093460620E8A1
:100940002093450620934606292F26952695269521
:1009500020FDA8C020E22093460620E8209345060B
:1009600020934606292F22952F7020FD97C020E264
:100970002093460620E82093450620934606292F1B
:1009800022952695277020FD85C020E220934606FB
:1009900020E820934506209346069C0124E0329FE0
:1009A000212D3327112420FD71C020E2209346061B
:1009B00020E8209345062093460697FF63C080E217
:1009C0008093450680E8809345068093460682E042
:1009D00080934606809345068093460608952093AB
:1009E000450620E8209345062093460620E281FF35
:1009F00045CF2093450620E82093450620934606E0
:100A000020E282FF45CF2093450620E8209345064B
:100A10002093460620E283FF45CF2093450620E839
:100A2000209345062093460620E284FF45CF20937D
:100A3000450620E8209345062093460620E285FFE0
:100A400045CF2093450620E820934506209346068F
:100A500020E286FF45CF2093450620E820934506F7
:100A60002093460620E287FF45CF2093450620E8E5
:100A7000209345062093460620E290FF45CF209321
:100A8000450644CF80E2809346069CCF20E2209327
:100A900045068ECF20E2209345067ACF20E22093B0
:100AA000450668CF20E22093450657CF20E22093E9
:100AB000450645CF20E22093450634CFFC01262F82
:100AC00030E060FD508B21FD518B22FD528B23FDC8
:100AD000538B24FD548B25FD558B26FD568B220F01
:100AE000232F221F330B232B09F0578B40FF05C008
:100AF00041FD05C06683618308956283089565831F
:100B00006183089547E050E06FEF70E080E790E088
:100B1000F9C21F920F920FB60F9211242F933F9399
:100B20004F935F936F937F938F939F93AF93BF93F5
:100B3000EF93FF938091040190910301292F21717C
:100B4000022E000C330B3595279535952795359555
:100B5000279535952795232BF1F084E0909111018D
:100B6000906390931101E0910D20F0910E20309749
:100B700009F00995FF91EF91BF91AF919F918F91EE
:100B80007F916F915F914F913F912F910F900FBE89
:100B90000F901F90189590FF02C083E0DFCF282FA1
:100BA0002171022E000C330B35952795359527952D
:100BB0003595279535952795232B11F082E0CECFDB
:100BC0008170CCCF1F920F920FB60F9211242F93EA
:100BD0003F934F935F936F937F938F939F93AF93C5
:100BE000BF93EF93FF9320910401809103018272E0
:100BF000082E000C990BAC015595479555954795D6
:100C0000559547955595479555954795452BF1F041
:100C100084E090912101906390932101E0910F2055
:100C2000F0911020309709F00995FF91EF91BF9155
:100C3000AF919F918F917F916F915F914F913F9174
:100C40002F910F900FBE0F901F90189581FF02C03B
:100C500083E0DFCF822F8272082E000C990B9C015B
:100C6000359527953595279535952795359527956C
:100C700035952795232B11F082E0CBCF8695817097
:100C8000C8CF1F920F920FB60F9211242F933F934C
:100C90004F935F936F937F938F939F93AF93BF9384
:100CA000EF93FF9320910401809103018474082E37
:100CB000000C990BAC01042E452F000C441F550B62
:100CC000000C441F551F452BF1F084E09091310139
:100CD000906390933101E0911120F09112203097B0
:100CE00009F00995FF91EF91BF91AF919F918F917D
:100CF0007F916F915F914F913F912F910F900FBE18
:100D00000F901F90189582FF02C083E0DFCF822FE3
:100D10008474082E000C990B9C01022E232F000CCA
:100D2000221F330B000C221F331F232B11F082E0F4
:100D3000CDCF82FB882780F9C9CF1F920F920FB6C3
:100D40000F9211242F933F934F935F936F937F9351
:100D50008F939F93AF93BF93EF93FF9320910401E1
:100D600080910301887890E0AC01440F452F441F27
:100D7000550B452BF1F084E09091410190639093E5
:100D80004101E0911320F0911420309709F009956A
:100D9000FF91EF91BF91AF919F918F917F916F9153
:100DA0005F914F913F912F910F900FBE0F901F9029
:100DB000189583FF02C083E0DFCF2878822F90E070
:100DC0009C01220F232F221F330B232B11F082E0D3
:100DD000D3CF83FB882780F9CFCF1F920F920FB616
:100DE0000F9211248F939F93EF93FF93E5E1F0E22D
:100DF00080819181019680839183FF91EF919F91F2
:100E00008F910F900FBE0F901F9018951F920F9209
:100E10000FB60F9211240F931F932F933F934F936D
:100E20005F936F937F938F939F93AF93BF93EF9352
:100E3000FF9340911520509116208091172090919A
:100E400018204817590778F121E020930204E09117
:100E50001B20F0911C20309731F100910804109173
:100E6000090460E070E0BA015527442720E030E033
:100E7000402B512B622B732BA0E0B0E0DC019927B3
:100E800088270091192010911A2020E030E0802B53
:100E9000912BA22BB32B84179507A607B707B0F4A5
:100EA000CB01BA010995FF91EF91BF91AF919F914D
:100EB0008F917F916F915F914F913F912F911F91F2
:100EC0000F910F900FBE0F901F901895AC01BD01B0
:100ED0004F5F5F4F6F4F7F4FE3CF40E058E164E0DB
:100EE00080E096E0EBDD40E058E168E080E096E0ED
:100EF000E5DD40E050E060E180E096E0DFDD40E0ED
:100F000050E060E280E896E0D9DD40E050E062E049
:100F100080E296E0D3DD43E050E061E080E496E0DB
:100F2000CDDD41E050E062E080E496E0C7DD40E0E6
:100F300050E064E080E496E0C1DD40E050E068E02D
:100F400080E496E0BBDD43E050E060E180E496E0C1
:100F5000B5DD41E050E060E280E496E0AFDD40E0E6
:100F600050E060E480E496E0A9DD41E050E060E814
:100F700080E496E0A3DD43E050E061E080E896E0A5
:100F80009DDD41E050E062E080E896E097DD40E0E2
:100F900050E064E080E896E091DD43E050E068E0F6
:100FA00080E896E08BDD43E050E061E080E696E08B
:100FB00085DD43E050E062E080E696E07FDD43E0DF
:100FC00050E064E080E896E079DD40E050E068E0E1
:100FD00080E896E073DD43E050E060E180E696E073
:100FE0006DDD40E050E060E480E696E067DD43E0E0
:100FF00050E060E880E696E061DD41E050E061E0CD
:1010000080E296E05BDD41E050E060E480E096E065
:1010100055DD41E050E060E880E096E04FDD40E0E3
:1010200050E061E080E096E049DD40E058E160E2B8
:1010300080E696E043DD41E050E064E080E296E047
:101040003DDD41E050E068E080E296E037DD41E0E0
:1010500050E062E080E096E031CD3FDF79DA81E078
:1010600069CA50DDFADF8AE694E0A1E0B0E00197BA
:10107000A109B109E1F788E09CE0B0DA8AE694E0E2
:10108000A1E0B0E00197A109B109E1F788E0809300
:10109000250684E790E0A2DA80E090E001968533AF
:1010A00022E89207D9F780E190E0CFDB41E082E0CF
:1010B00030E420E812C04093250680930506909105
:1010C000680691FF16C0309305069091680694FF5C
:1010D00016C020930506809306069091680695FF3A
:1010E000EACF40932606809305069091680691FD0D
:1010F000EACF309306069091680694FDEACF2093DC
:101100000606E9CFDC0101C06D9341505040E0F785
:061110000895F894FFCFE2
:00000001FF
