:10000000FDC000001FC100001DC100001BC1000099
:1000100019C1000017C1000015C1000013C1000084
:1000200011C100000FC1000068C200006FC10000D4
:1000300009C1000007C1000005C1000003C10000A4
:1000400001C10000FFC00000FDC00000FBC00000B7
:10005000F9C00000F7C00000F5C00000F3C00000C8
:10006000F1C00000EFC00000EDC00000EBC00000D8
:10007000E9C00000E7C00000E5C00000E3C00000E8
:10008000E1C00000DFC00000DDC00000DBC00000F8
:10009000D9C00000D7C00000D5C00000D3C0000008
:1000A000D1C00000CFC00000CDC00000CBC0000018
:1000B000C9C00000C7C00000C5C00000C3C0000028
:1000C000C1C00000BFC00000BDC00000BBC0000038
:1000D000B9C00000B7C00000B5C00000B3C0000048
:1000E000B1C00000AFC00000ADC00000ABC0000058
:1000F000A9C00000A7C00000A5C00000A3C0000068
:10010000A1C000009FC000009DC000009BC0000077
:1001100099C0000097C0000095C0000093C0000087
:1001200091C000008FC000008DC000008BC0000097
:1001300089C0000087C0000085C0000083C00000A7
:1001400081C000007FC000007DC000007BC00000B7
:1001500079C0000077C0000075C0000073C00000C7
:1001600071C000006FC000006DC000006BC00000D7
:1001700069C0000067C0000065C0000063C00000E7
:1001800061C000005FC000005DC000005BC00000F7
:1001900059C0000057C0000055C0000053C0000007
:1001A00051C000004FC000004DC000004BC0000017
:1001B00049C0000047C0000045C0000043C0000027
:1001C00041C000003FC000003DC000003BC0000037
:1001D00039C0000037C0000035C0000033C0000047
:1001E00031C000002FC000002DC000002BC0000057
:1001F00029C0000027C0000025C0000011241FBE38
:10020000CFEFCDBFDFE3DEBF00E00CBF18BE19BEED
:100210001ABE1BBE10E2A0E0B0E2E2E3F9E000E0AB
:100220000BBF02C007900D92A630B107D9F71BBED5
:1002300020E2A6E0B0E201C01D92A631B207E1F7CC
:100240002AD375C3DDCE0F931F93E0E0F4E08181E4
:1002500080FDFDCF2FB7F89440910C2050910D20D8
:100260008091080490910904009731F430910304BF
:1002700030FF02C04F5F5F4F2FBF60E070E0BA01F8
:1002800055274427A0E0B0E08A019B01082B192BD9
:100290002A2B3B2BC901B8011F910F910895E0E073
:1002A000F4E021E0228364877587ECE0F0E2648368
:1002B000758382839383E0E0F4E0818180FDFDCF4C
:1002C000E0E0F4E082E0838385E082830895809318
:1002D000122090931320089564E080E0DED1E0E0E6
:1002E000F4E08FEF9FEF82879387108611869FB788
:1002F000F894A6E0B0E213968C9113978F5F139653
:100300008C939FBF81E08283808308951F920F9218
:100310000FB60F92112408B60F9218BE09B60F92AD
:1003200019BE0BB60F921BBECF92DF92EF92FF92D7
:100330000F931F932F933F934F935F936F937F93ED
:100340008F939F93AF93BF93EF93FF93ECE0F0E213
:10035000808191812281338182179307F0F121E01E
:1003600020930204E0911220F09113203097A9F11C
:100370006091080470910904A0E0B0E0DC019927C5
:100380008827AB0160E070E08C019D01042B152BE8
:10039000262B372BC901B801ACE0B0E212960D91C3
:1003A0001C91139720E030E0980111270027149644
:1003B000CD90DC901597E12CF12C0C291D292E29CC
:1003C0003F29061717072807390730F0C901B80178
:1003D0006F5F7F4F8F4F9F4F1995FF91EF91BF91A7
:1003E000AF919F918F917F916F915F914F913F91CD
:1003F0002F911F910F91FF90EF90DF90CF900F9072
:100400000BBE0F9009BE0F9008BE0F900FBE0F904D
:100410001F901895CF93DF9343E050E060E880E4AD
:1004200096E047D1C0E4D6E080E88E8343E050E018
:1004300060E280E496E03DD180E28E8343E050E0CC
:1004400062E080E496E035D182E08E8343E050E0C4
:1004500061E080E496E02DD181E08D83DF91CF9142
:1004600008958091C80783FD04C088E08093C50784
:1004700003C088E08093C60783E492E028DFE3DED0
:1004800001960DCF08952AE030E0E0ECF7E048E077
:10049000808583FD02C0458301C0468380E090E0F3
:1004A00001968A3151E49507D9F72150310981F736
:1004B00081E392E00CDFC7DE70588F4F9F4FEFCE85
:1004C000089587E08093A200C8D0E6E0F0E21082B1
:1004D000118212821382148281E08583FDDE78947A
:1004E000109214201092152081E392E0F0DEABDE32
:1004F00070588F4F9F4FD3CE08951F920F920FB613
:100500000F92112408B60F9218BE0BB60F921BBEA5
:100510008F939F93EF93FF938091C80783FD04C04F
:1005200088E08093C50703C088E08093C607ECE0AD
:10053000F0E28081918101968083918380911420E3
:100540009091152001968093142090931520FF918F
:10055000EF919F918F910F900BBE0F9008BE0F905F
:100560000FBE0F901F9018950F931F93CF93DF939B
:100570001F92CDB7DEB7082F11E01983BE016F5F60
:100580007F4F80E090E007D11093060603B9BE01CB
:100590006F5F7F4F80E090E014D10F90DF91CF919B
:1005A0001F910F910895CF92DF92EF92FF920F93D8
:1005B0001F93CF93DF931F92CDB7DEB7E0E0F6E055
:1005C00084E08683858381E0898380E090E099D010
:1005D000C12CD12C760100E01BE127EB30E040E09C
:1005E000BE016F5F7F4F80E090E0B7D0069A88EA47
:1005F000BBDF8FE1B9DF83EDB7DF80E0B5DF80E4FB
:10060000B3DF81EAB1DF88ECAFDF8AEDADDF82E0F6
:10061000ABDF81E8A9DF8FE8A7DF84EAA5DF86EA00
:10062000A3DF85EDA1DF80E89FDF8DE89DDF84E11A
:100630009BDF8BED99DF80E497DF89ED95DF81EF1C
:1006400093DF8FEA91DF0F90DF91CF911F910F9190
:10065000FF90EF90DF90CF9008958FEF8093700020
:100660008093710080937200809373008093740074
:100670008093750080937600E0E5F0E082E082836D
:100680009FB7F8948081886080839FBF818183FFBA
:10069000FDCF8BE08093430008959FB7F894E82F37
:1006A000F0E0E059FF4F60958081682360839FBF31
:1006B0000895CF93DF93FC01709620E030E0C62FC1
:1006C000D0E0DE01022E02C0B595A7950A94E2F7AC
:1006D000A0FD50832F5F3F4F31962830310589F7B9
:1006E00040FF0AC041FF03C0FC01658302C0FC015A
:1006F0006683FC01618302C0FC016283DF91CF91BC
:1007000008950F931F93CF93DF93EC018C01C03CAE
:1007100088E0D80721F468E083E0BFDF10C0C03C68
:1007200089E0D80721F468E084E0B7DF0EC0C03C60
:100730008AE0D80721F468E085E0AFDF06C0003C1E
:100740001B4019F468E086E0A8DF88818061888317
:10075000DF91CF911F910F910895EF92FF920F9328
:100760001F93CF937C01C42FB901A80100E814E8BE
:100770002EE130E049D0882344F0F7019081CC0F7E
:10078000CC0FCC70937FC92BC083CF911F910F9159
:10079000FF90EF900895FB018081E82FE695E695A4
:1007A000E69540E2E49FF0011124FA5F877021E0B2
:1007B00030E0A90102C0440F551F8A95E2F7468335
:1007C0000895FB018081E82FE695E695E69540E2E5
:1007D000E49FF0011124FA5F877021E030E0A90165
:1007E00002C0440F551F8A95E2F74583089543E000
:1007F00050E068E080EC97E05CDF40E058E164E0C6
:1008000080EC97E056CF0895CF92DF92EF92FF925F
:100810000F931F93CF93DF93EC016A017B01DB0100
:10082000CA010197A109B109BC01CD01600F711F77
:10083000821F931FA701960158D021383105410529
:100840005105F8F4213460F4213260F4213160F470
:10085000293060F4253060F4233060F480E80BC068
:1008600083E009C082E007C082E805C081E003C0E0
:1008700081E801C080E098819C77982B988381E083
:1008800001C08FEFDF91CF911F910F91FF90EF90FB
:10089000DF90CF900895ABDF86DEBCDD12DE26E070
:1008A00030E247E050E2C8E4D0E0F894F9018081FA
:1008B000811108C0DA01E0E0EF5F8D918823E1F358
:1008C000E11102C07894F1CF8881F0E0E150F04E60
:1008D000817F9081892B8883888181608883789447
:1008E000889588818E7F8883E0CFA1E21A2EAA1B8B
:1008F000BB1BFD010DC0AA1FBB1FEE1FFF1FA217D0
:10090000B307E407F50720F0A21BB30BE40BF50BCC
:10091000661F771F881F991F1A9469F76095709555
:10092000809590959B01AC01BD01CF010895F8948D
:02093000FFCFF7
:06093200000E060C04009B
:00000001FF
