:10000000FDC0000016C1000014C1000012C10000B4
:1000100010C100000EC1000091C20000B3C2000078
:10002000D5C20000F7C2000019C3000030C30000B1
:1000300000C1000096C10000FCC00000FAC0000032
:10004000F8C00000F6C00000F4C00000F2C00000DC
:10005000F0C00000EEC00000ECC00000EAC00000EC
:10006000E8C00000E6C00000E4C00000E2C00000FC
:10007000E0C00000DEC00000DCC00000DAC000000C
:10008000D8C00000D6C00000D4C00000D2C000001C
:10009000D0C00000CEC00000CCC00000CAC000002C
:1000A000C8C00000C6C00000C4C00000C2C000003C
:1000B000C0C00000BEC0000077C10000BAC0000090
:1000C000B8C00000B6C00000B4C00000B2C000005C
:1000D000B0C00000AEC00000ACC00000AAC000006C
:1000E000A8C00000A6C00000A4C00000A2C000007C
:1000F000A0C000009EC000009CC000009AC000008C
:1001000098C0000096C0000094C0000092C000009B
:1001100090C000008EC000008CC000008AC00000AB
:1001200088C0000086C0000084C0000082C00000BB
:1001300080C000007EC000007CC000007AC00000CB
:1001400078C0000076C0000074C0000072C00000DB
:1001500070C000006EC000006CC000006AC00000EB
:1001600068C0000066C0000064C0000062C00000FB
:1001700060C000005EC000005CC000005AC000000B
:1001800058C0000056C0000054C0000052C000001B
:1001900050C000004EC000004CC000004AC000002B
:1001A00048C0000046C0000044C0000042C000003B
:1001B00040C000003EC000003CC000003AC000004B
:1001C00038C0000036C0000034C0000032C000005B
:1001D00030C000002EC000002CC000002AC000006B
:1001E00028C0000026C0000024C0000022C000007B
:1001F00020C000001EC000001CC0000011241FBE53
:10020000CFEFCDBFD7E2DEBF10E2A0E0B0E2E2ED7B
:10021000F7E002C005900D92A030B107D9F720E2B7
:10022000A0E0B0E201C01D92AB31B207E1F7CCD241
:10023000CEC2E6CECF93DF93E0910020F091012073
:10024000848183FF08C08860848383E0838386EF92
:1002500080930A2083C0982F947131F083E08383C8
:100260008FEF80930A207AC086FF43C0C0E0D0E2BF
:10027000AA81BB818C819D8114962D913C9115970B
:10028000821793076CF49C012F5F3F4F209304204B
:1002900030930520A80FB91F11968C9187835EC0FB
:1002A000809106209091072018962D913C911997E6
:1002B00082179307C8F420910820222321F0868119
:1002C000816086834BC016962D913C911797AC01A7
:1002D0004F5F5F4F4093062050930720D901A80F2E
:1002E000B91F8C9187833AC083E0838310920A20E0
:1002F00035C0882384F5A0E0B0E21296CD91DC9160
:10030000139716968D919C9117972885398582179A
:100310009307D8F46E817F819C012F5F3F4F20931C
:100320000620309307204781DB01A80FB91F4C93AB
:10033000888599852817390718F482E083830EC0D1
:1003400087E0838310920A2009C083E0838389EFCA
:1003500080930A2003C08BEF80930A20DF91CF9116
:1003600008951F920F920FB60F9211242F933F936F
:100370004F935F936F937F938F939F93AF93BF93AD
:10038000EF93FF9357DFFF91EF91BF91AF919F9153
:100390008F917F916F915F914F913F912F910F902E
:1003A0000FBE0F901F9018951F920F920FB60F92CD
:1003B00011242F933F934F935F936F937F938F936A
:1003C0009F93AF93BF93EF93FF9334DFFF91EF9130
:1003D000BF91AF919F918F917F916F915F914F915D
:1003E0003F912F910F900FBE0F901F901895E0E452
:1003F000F6E082E0868385830895E0E4F6E081E01C
:10040000868385830895F9DFF2CF0895CF93DF9334
:10041000FC01709620E030E0C62FD0E0DE01022E15
:1004200002C0B595A7950A94E2F7A0FD50832F5F0F
:100430003F4F31962830310589F740FF0AC041FF10
:1004400003C0FC01658302C0FC016683FC0161837B
:1004500002C0FC016283DF91CF9108958FEF8093FA
:10046000700080937100809372008093730080937A
:10047000740080937500809376000895CF93DF9386
:10048000282F30E0F9017196E295F295F07FFE2772
:10049000E07FFE27A0E0B1E014969C91149713969C
:1004A0006C91D901149641E050E0EA010A2E02C095
:1004B000CC0FDD1F0A94E2F7082E02C0440F551F2F
:1004C0000A94E2F74C2B642370E0EB010A2E02C081
:1004D000D595C7950A94E2F7C0FD1AC0082E02C050
:1004E000759567950A94E2F760FD14C0492350E0C2
:1004F000BA0102C075956795AA95E2F760FD0CC038
:1005000002C0559547958A95E2F7842F817005C002
:1005100084E003C083E001C082E091819063918315
:10052000220F331FF901E55FFF4D0190F081E02DAF
:10053000309709F00995DF91CF9108951F920F929E
:100540000FB60F9211242F933F934F935F936F93A6
:100550007F938F939F93AF93BF93EF93FF9380E02D
:100560008DDFFF91EF91BF91AF919F918F917F911F
:100570006F915F914F913F912F910F900FBE0F9010
:100580001F9018951F920F920FB60F9211242F9360
:100590003F934F935F936F937F938F939F93AF930B
:1005A000BF93EF93FF9381E069DFFF91EF91BF91DC
:1005B000AF919F918F917F916F915F914F913F91FB
:1005C0002F910F900FBE0F901F9018951F920F92B2
:1005D0000FB60F9211242F933F934F935F936F9316
:1005E0007F938F939F93AF93BF93EF93FF9382E09B
:1005F00045DFFF91EF91BF91AF919F918F917F91D7
:100600006F915F914F913F912F910F900FBE0F907F
:100610001F9018951F920F920FB60F9211242F93CF
:100620003F934F935F936F937F938F939F93AF937A
:10063000BF93EF93FF9383E021DFFF91EF91BF9191
:10064000AF919F918F917F916F915F914F913F916A
:100650002F910F900FBE0F901F9018951F920F9221
:100660000FB60F9211248F939F93EF93FF93E3E1C3
:10067000F0E280819181019680839183FF91EF91D7
:100680009F918F910F900FBE0F901F9018951F9202
:100690000F920FB60F921124CF92DF92EF92FF923A
:1006A0000F931F932F933F934F935F936F937F937A
:1006B0008F939F93AF93BF93EF93FF93E3E1F0E2A8
:1006C000808191812281338182179307F0F121E0AB
:1006D00020930204E0911920F0911A203097A9F19B
:1006E0006091080470910904A0E0B0E0DC01992752
:1006F0008827AB0160E070E08C019D01042B152B75
:10070000262B372BC901B801A3E1B0E212960D9157
:100710001C91139720E030E09801112700271496D0
:10072000CD90DC901597E12CF12C0C291D292E2958
:100730003F29061717072807390730F0C901B80104
:100740006F5F7F4F8F4F9F4F0995FF91EF91BF9143
:10075000AF919F918F917F916F915F914F913F9159
:100760002F911F910F91FF90EF90DF90CF900F90FE
:100770000FBE0F901F901895CF93DF9343E050E08A
:1007800060E880E496E042DEC0E4D6E080E88E8354
:1007900043E050E060E280E496E038DE80E28E8361
:1007A00043E050E062E080E496E030DE82E08E8359
:1007B00043E050E061E080E496E028DE81E08D8354
:1007C00022DEDF91CF91089549DED6DFFECFF89487
:0207D000FFCF59
:00000001FF
